{
    "txid": "6176dab53a0cf9155c8ac22258efc972a06e53a772ee34a589fa9af0e39c926e",
    "hash": "6176dab53a0cf9155c8ac22258efc972a06e53a772ee34a589fa9af0e39c926e",
    "version": 1,
    "size": 83,
    "vsize": 83,
    "weight": 332,
    "locktime": 0,
    "vin": [
        {
            "txid": "4d49a71ec9da436f71ec4ee231d04f292a29cd316f598bb7068feccabdc59485",
            "vout": 0,
            "scriptSig": {
                "asm": "",
                "hex": ""
            },
            "sequence": 4294967295
        }
    ],
    "vout": [
        {
            "value": 0.00100000,
            "n": 0,
            "scriptPubKey": {
                "asm": "OP_HASH160 758193303b70939695db8106bd606372c7c294b3 OP_EQUAL",
                "hex": "a914758193303b70939695db8106bd606372c7c294b387",
                "reqSigs": 1,
                "type": "scripthash",
                "addresses": [
                    "rGwuQiciH2aaTai2iCgnhna4jgEDxUG4KA"
                ]
            }
        }
    ],
    "hex": "01000000018594c5bdcaec8f06b78b596f31cd292a294fd031e24eec716f43dac91ea7494d0000000000ffffffff01a08601000000000017a914758193303b70939695db8106bd606372c7c294b38700000000"
}
