{
    "txid": "3075b449938d1e37fbfa05801eac7b5354be8e0249b5cf910993b4f0e3afe3b4",
    "hash": "3075b449938d1e37fbfa05801eac7b5354be8e0249b5cf910993b4f0e3afe3b4",
    "version": 2,
    "size": 83,
    "vsize": 83,
    "weight": 332,
    "locktime": 0,
    "vin": [
        {
            "txid": "5897de6bd6027a475eadd57019d4e6872c396d0716c4875a5f1a6fcfdf385c1f",
            "vout": 0,
            "scriptSig": {
                "asm": "",
                "hex": ""
            },
            "sequence": 4294967293
        }
    ],
    "vout": [
        {
            "value": 0.18000000,
            "n": 0,
            "scriptPubKey": {
                "asm": "OP_HASH160 756b2d57d00fec51fc2c5f49eb7df828452fa2bc OP_EQUAL",
                "hex": "a914756b2d57d00fec51fc2c5f49eb7df828452fa2bc87",
                "reqSigs": 1,
                "type": "scripthash",
                "addresses": [
                    "rGwSaVMAwtvB3zfvGCcDUyUpC11UVLmmM2"
                ]
            }
        }
    ],
    "hex": "02000000011f5c38dfcf6f1a5f5a87c416076d392c87e6d41970d5ad5e477a02d66bde97580000000000fdffffff0180a812010000000017a914756b2d57d00fec51fc2c5f49eb7df828452fa2bc8700000000"
}
