{
    "txid": "543db50fd6946238b1640665217776bcc8c2026b95d5580c76345fe194ede7a2",
    "hash": "543db50fd6946238b1640665217776bcc8c2026b95d5580c76345fe194ede7a2",
    "version": 1,
    "size": 174,
    "vsize": 174,
    "weight": 696,
    "locktime": 0,
    "vin": [
        {
            "txid": "5897de6bd6027a475eadd57019d4e6872c396d0716c4875a5f1a6fcfdf385c1f",
            "vout": 0,
            "scriptSig": {
                "asm": "",
                "hex": ""
            },
            "sequence": 4294967295
        }
    ],
    "vout": [
        {
            "value": 0.18000000,
            "n": 0,
            "scriptPubKey": {
                "asm": "OP_HASH160 756b2d57d00fec51fc2c5f49eb7df828452fa2bc OP_EQUAL",
                "hex": "a914756b2d57d00fec51fc2c5f49eb7df828452fa2bc87",
                "reqSigs": 1,
                "type": "scripthash",
                "addresses": [
                    "rGwSaVMAwtvB3zfvGCcDUyUpC11UVLmmM2"
                ]
            }
        },
        {
            "value": 4.00000000,
            "n": 1,
            "scriptPubKey": {
                "asm": "OP_RETURN 54686973204f505f52455455524e207472616e73616374696f6e206f7574707574207761732063726561746564206279206d6f646966696564206372656174657261777472616e73616374696f6e2e",
                "hex": "6a4c4f54686973204f505f52455455524e207472616e73616374696f6e206f7574707574207761732063726561746564206279206d6f646966696564206372656174657261777472616e73616374696f6e2e",
                "type": "nulldata"
            }
        }
    ],
    "hex": "01000000011f5c38dfcf6f1a5f5a87c416076d392c87e6d41970d5ad5e477a02d66bde97580000000000ffffffff0280a812010000000017a914756b2d57d00fec51fc2c5f49eb7df828452fa2bc870084d71700000000526a4c4f54686973204f505f52455455524e207472616e73616374696f6e206f7574707574207761732063726561746564206279206d6f646966696564206372656174657261777472616e73616374696f6e2e00000000"
}
